:02000004F90001
:100000009711000093810196138101A2138501814C
:10001000938501811386C18163FCC500832205009D
:1000200023A055001305450093854500E3E8C5FE70
:100030001385C181938501826378B5002320050073
:1000400013054500E36CB5FEEF000001EF00400C26
:080050006F0000006780000052
:10005800130101FF2324810023202101138401813E
:100068001389018133098940232611002322910035
:1000780013592940630E09009304000083270400E4
:100088009384140013044400E7800700E31899FEE2
:100098001384018113890181330989401359294047
:1000A800630E09009304000083270400938414005E
:1000B80013044400E7800700E31899FE8320C10079
:1000C8000324810083244100032901001301010155
:1000D80067800000B7470F0093870724B3D5F50260
:1000E800B7C70000938787FF3306F600832706000B
:1000F8003385A5023305F50083270600B307F540CD
:10010800E3DC07FE67800000130101FF23261100CE
:10011800232481002322910023202101B75701F8CD
:100128001307F00023A4E700375901F893071000DC
:100138002322F9003706B0F8B7847D01938504843B
:1001480037140300130504D4EFF0DFF893072000F9
:100158002322F9003706B0F893850484130504D4E4
:08016800EFF05FF76FF05FFCA0
:0A0170000000000000000000000085
:04000005F9000000FE
:00000001FF
